{"project/contracts/RacingGame.sol":{"RacingGame":{"abi":[{"inputs":[],"stateMutability":"nonpayable","type":"constructor"},{"anonymous":false,"inputs":[{"indexed":true,"internalType":"address","name":"player","type":"address"},{"indexed":false,"internalType":"string","name":"newView","type":"string"},{"indexed":false,"internalType":"string","name":"builderCode","type":"string"},{"indexed":false,"internalType":"string","name":"encodedString","type":"string"}],"name":"CameraSwitched","type":"event"},{"anonymous":false,"inputs":[{"indexed":true,"internalType":"address","name":"player","type":"address"},{"indexed":false,"internalType":"uint256","name":"bonusPoints","type":"uint256"},{"indexed":false,"internalType":"string","name":"builderCode","type":"string"},{"indexed":false,"internalType":"string","name":"encodedString","type":"string"},{"indexed":false,"internalType":"uint256","name":"timestamp","type":"uint256"}],"name":"CheckedIn","type":"event"},{"anonymous":false,"inputs":[{"indexed":true,"internalType":"address","name":"player","type":"address"},{"indexed":false,"internalType":"string","name":"builderCode","type":"string"},{"indexed":false,"internalType":"string","name":"encodedString","type":"string"},{"indexed":false,"internalType":"uint256","name":"timestamp","type":"uint256"}],"name":"GameStarted","type":"event"},{"anonymous":false,"inputs":[{"indexed":true,"internalType":"address","name":"player","type":"address"},{"indexed":false,"internalType":"string","name":"username","type":"string"},{"indexed":false,"internalType":"uint256","name":"score","type":"uint256"},{"indexed":false,"internalType":"string","name":"builderCode","type":"string"},{"indexed":false,"internalType":"string","name":"encodedString","type":"string"}],"name":"ScoreSubmitted","type":"event"},{"inputs":[],"name":"GAME_FEE","outputs":[{"internalType":"uint256","name":"","type":"uint256"}],"stateMutability":"view","type":"function"},{"inputs":[{"internalType":"address","name":"","type":"address"}],"name":"bestScore","outputs":[{"internalType":"uint256","name":"","type":"uint256"}],"stateMutability":"view","type":"function"},{"inputs":[{"internalType":"address","name":"","type":"address"}],"name":"checkInBonus","outputs":[{"internalType":"uint256","name":"","type":"uint256"}],"stateMutability":"view","type":"function"},{"inputs":[{"internalType":"string","name":"builderCode","type":"string"},{"internalType":"string","name":"encodedString","type":"string"}],"name":"dailyCheckIn","outputs":[],"stateMutability":"payable","type":"function"},{"inputs":[{"internalType":"address","name":"player","type":"address"}],"name":"getCheckInBonus","outputs":[{"internalType":"uint256","name":"","type":"uint256"}],"stateMutability":"view","type":"function"},{"inputs":[],"name":"getLeaderboard","outputs":[{"components":[{"internalType":"address","name":"player","type":"address"},{"internalType":"string","name":"username","type":"string"},{"internalType":"uint256","name":"score","type":"uint256"},{"internalType":"uint256","name":"timestamp","type":"uint256"}],"internalType":"struct RacingGame.PlayerScore[]","name":"","type":"tuple[]"}],"stateMutability":"view","type":"function"},{"inputs":[{"internalType":"address","name":"","type":"address"}],"name":"lastCheckIn","outputs":[{"internalType":"uint256","name":"","type":"uint256"}],"stateMutability":"view","type":"function"},{"inputs":[],"name":"owner","outputs":[{"internalType":"address","name":"","type":"address"}],"stateMutability":"view","type":"function"},{"inputs":[{"internalType":"string","name":"builderCode","type":"string"},{"internalType":"string","name":"encodedString","type":"string"}],"name":"startGame","outputs":[],"stateMutability":"payable","type":"function"},{"inputs":[{"internalType":"uint256","name":"score","type":"uint256"},{"internalType":"string","name":"username","type":"string"},{"internalType":"string","name":"builderCode","type":"string"},{"internalType":"string","name":"encodedString","type":"string"}],"name":"submitScore","outputs":[],"stateMutability":"payable","type":"function"},{"inputs":[{"internalType":"string","name":"newView","type":"string"},{"internalType":"string","name":"builderCode","type":"string"},{"internalType":"string","name":"encodedString","type":"string"}],"name":"switchCamera","outputs":[],"stateMutability":"payable","type":"function"},{"inputs":[],"name":"withdraw","outputs":[],"stateMutability":"nonpayable","type":"function"}],"evm":{"bytecode":{"linkReferences":{},"object":"608060405234801561000f575f80fd5b50335f806101000a81548173ffffffffffffffffffffffffffffffffffffffff021916908373ffffffffffffffffffffffffffffffffffffffff160217905550611c5b8061005c5f395ff3fe6080604052600436106100a6575f3560e01c8063478a41fd11610063578063478a41fd1461017a57806350063037146101965780636d763a6e146101d25780638da5cb5b146101fc578063dc0c695f14610226578063ef6fdb1c14610262576100a6565b8063044c96e4146100aa5780631001333a146100c65780631cfcc5d4146100f05780633ccfd60b1461010c5780633f224c641461012257806343a8b7a51461015e575b5f80fd5b6100c460048036038101906100bf9190610f6c565b61029e565b005b3480156100d1575f80fd5b506100da610342565b6040516100e79190611002565b60405180910390f35b61010a60048036038101906101059190610f6c565b61034c565b005b348015610117575f80fd5b50610120610517565b005b34801561012d575f80fd5b5061014860048036038101906101439190611075565b610609565b6040516101559190611002565b60405180910390f35b610178600480360381019061017391906110ca565b61061e565b005b610194600480360381019061018f919061118e565b61086b565b005b3480156101a1575f80fd5b506101bc60048036038101906101b79190611075565b610913565b6040516101c99190611002565b60405180910390f35b3480156101dd575f80fd5b506101e6610959565b6040516101f39190611401565b60405180910390f35b348015610207575f80fd5b50610210610b31565b60405161021d9190611430565b60405180910390f35b348015610231575f80fd5b5061024c60048036038101906102479190611075565b610b54565b6040516102599190611002565b60405180910390f35b34801561026d575f80fd5b5061028860048036038101906102839190611075565b610b69565b6040516102959190611002565b60405180910390f35b6509184e72a00034146102e6576040517f08c379a00000000000000000000000000000000000000000000000000000000081526004016102dd906114a3565b60405180910390fd5b3373ffffffffffffffffffffffffffffffffffffffff167f94965bc8d78b90b287b4c4ab27f7e409a629262c533b0ab295fc6a5078ca796c85858585426040516103349594939291906114fb565b60405180910390a250505050565b6509184e72a00081565b6509184e72a0003414610394576040517f08c379a000000000000000000000000000000000000000000000000000000000815260040161038b906114a3565b60405180910390fd5b6201518060025f3373ffffffffffffffffffffffffffffffffffffffff1673ffffffffffffffffffffffffffffffffffffffff1681526020019081526020015f20546103e0919061156f565b421015610422576040517f08c379a0000000000000000000000000000000000000000000000000000000008152600401610419906115ec565b60405180910390fd5b4260025f3373ffffffffffffffffffffffffffffffffffffffff1673ffffffffffffffffffffffffffffffffffffffff1681526020019081526020015f2081905550600a60045f3373ffffffffffffffffffffffffffffffffffffffff1673ffffffffffffffffffffffffffffffffffffffff1681526020019081526020015f205f8282546104b1919061156f565b925050819055503373ffffffffffffffffffffffffffffffffffffffff167fd0c595feb7cc878e58fe986bb773f3dbbdbf7bc9d6cfa4754a8d07ff7ce4ec1a600a86868686426040516105099695949392919061164c565b60405180910390a250505050565b5f8054906101000a900473ffffffffffffffffffffffffffffffffffffffff1673ffffffffffffffffffffffffffffffffffffffff163373ffffffffffffffffffffffffffffffffffffffff16146105a4576040517f08c379a000000000000000000000000000000000000000000000000000000000815260040161059b906116eb565b60405180910390fd5b5f8054906101000a900473ffffffffffffffffffffffffffffffffffffffff1673ffffffffffffffffffffffffffffffffffffffff166108fc4790811502906040515f60405180830381858888f19350505050158015610606573d5f803e3d5ffd5b50565b6004602052805f5260405f205f915090505481565b6509184e72a0003414610666576040517f08c379a000000000000000000000000000000000000000000000000000000000815260040161065d906114a3565b60405180910390fd5b60035f3373ffffffffffffffffffffffffffffffffffffffff1673ffffffffffffffffffffffffffffffffffffffff1681526020019081526020015f20548711156106ee578660035f3373ffffffffffffffffffffffffffffffffffffffff1673ffffffffffffffffffffffffffffffffffffffff1681526020019081526020015f20819055505b600160405180608001604052803373ffffffffffffffffffffffffffffffffffffffff16815260200188888080601f0160208091040260200160405190810160405280939291908181526020018383808284375f81840152601f19601f82011690508083019250505050505050815260200189815260200142815250908060018154018082558091505060019003905f5260205f2090600402015f909190919091505f820151815f015f6101000a81548173ffffffffffffffffffffffffffffffffffffffff021916908373ffffffffffffffffffffffffffffffffffffffff16021790555060208201518160010190816107e99190611927565b5060408201518160020155606082015181600301555050610808610b7e565b3373ffffffffffffffffffffffffffffffffffffffff167fa89e85b54a15a759c551902a9cfadd9c8ebfcb953bf70922a2ca03be5b489c2287878a8888888860405161085a97969594939291906119f6565b60405180910390a250505050505050565b6509184e72a00034146108b3576040517f08c379a00000000000000000000000000000000000000000000000000000000081526004016108aa906114a3565b60405180910390fd5b3373ffffffffffffffffffffffffffffffffffffffff167fef94ecff7052faaa3f844df9f88ffa2a0eaaf257ccd06634cafa680579a3cf8187878787878760405161090396959493929190611a54565b60405180910390a2505050505050565b5f60045f8373ffffffffffffffffffffffffffffffffffffffff1673ffffffffffffffffffffffffffffffffffffffff1681526020019081526020015f20549050919050565b60605f600a6001805490501061097057600a610977565b6001805490505b90505f8167ffffffffffffffff81111561099457610993611709565b5b6040519080825280602002602001820160405280156109cd57816020015b6109ba610ec8565b8152602001906001900390816109b25790505b5090505f5b82811015610b2857600181815481106109ee576109ed611aa4565b5b905f5260205f2090600402016040518060800160405290815f82015f9054906101000a900473ffffffffffffffffffffffffffffffffffffffff1673ffffffffffffffffffffffffffffffffffffffff1673ffffffffffffffffffffffffffffffffffffffff168152602001600182018054610a6990611763565b80601f0160208091040260200160405190810160405280929190818152602001828054610a9590611763565b8015610ae05780601f10610ab757610100808354040283529160200191610ae0565b820191905f5260205f20905b815481529060010190602001808311610ac357829003601f168201915b5050505050815260200160028201548152602001600382015481525050828281518110610b1057610b0f611aa4565b5b602002602001018190525080806001019150506109d2565b50809250505090565b5f8054906101000a900473ffffffffffffffffffffffffffffffffffffffff1681565b6003602052805f5260405f205f915090505481565b6002602052805f5260405f205f915090505481565b5f60018054905090506002811015610b965750610ec6565b5f600182610ba49190611ad1565b90505b5f811115610ec35760018082610bbd9190611ad1565b81548110610bce57610bcd611aa4565b5b905f5260205f2090600402016002015460018281548110610bf257610bf1611aa4565b5b905f5260205f209060040201600201541115610eab575f60018281548110610c1d57610c1c611aa4565b5b905f5260205f2090600402016040518060800160405290815f82015f9054906101000a900473ffffffffffffffffffffffffffffffffffffffff1673ffffffffffffffffffffffffffffffffffffffff1673ffffffffffffffffffffffffffffffffffffffff168152602001600182018054610c9890611763565b80601f0160208091040260200160405190810160405280929190818152602001828054610cc490611763565b8015610d0f5780601f10610ce657610100808354040283529160200191610d0f565b820191905f5260205f20905b815481529060010190602001808311610cf257829003601f168201915b5050505050815260200160028201548152602001600382015481525050905060018083610d3c9190611ad1565b81548110610d4d57610d4c611aa4565b5b905f5260205f20906004020160018381548110610d6d57610d6c611aa4565b5b905f5260205f2090600402015f82015f9054906101000a900473ffffffffffffffffffffffffffffffffffffffff16815f015f6101000a81548173ffffffffffffffffffffffffffffffffffffffff021916908373ffffffffffffffffffffffffffffffffffffffff16021790555060018201816001019081610df09190611b19565b5060028201548160020155600382015481600301559050508060018084610e179190611ad1565b81548110610e2857610e27611aa4565b5b905f5260205f2090600402015f820151815f015f6101000a81548173ffffffffffffffffffffffffffffffffffffffff021916908373ffffffffffffffffffffffffffffffffffffffff1602179055506020820151816001019081610e8d9190611927565b50604082015181600201556060820151816003015590505050610eb0565b610ec3565b8080610ebb90611bfe565b915050610ba7565b50505b565b60405180608001604052805f73ffffffffffffffffffffffffffffffffffffffff168152602001606081526020015f81526020015f81525090565b5f80fd5b5f80fd5b5f80fd5b5f80fd5b5f80fd5b5f8083601f840112610f2c57610f2b610f0b565b5b8235905067ffffffffffffffff811115610f4957610f48610f0f565b5b602083019150836001820283011115610f6557610f64610f13565b5b9250929050565b5f805f8060408587031215610f8457610f83610f03565b5b5f85013567ffffffffffffffff811115610fa157610fa0610f07565b5b610fad87828801610f17565b9450945050602085013567ffffffffffffffff811115610fd057610fcf610f07565b5b610fdc87828801610f17565b925092505092959194509250565b5f819050919050565b610ffc81610fea565b82525050565b5f6020820190506110155f830184610ff3565b92915050565b5f73ffffffffffffffffffffffffffffffffffffffff82169050919050565b5f6110448261101b565b9050919050565b6110548161103a565b811461105e575f80fd5b50565b5f8135905061106f8161104b565b92915050565b5f6020828403121561108a57611089610f03565b5b5f61109784828501611061565b91505092915050565b6110a981610fea565b81146110b3575f80fd5b50565b5f813590506110c4816110a0565b92915050565b5f805f805f805f6080888a0312156110e5576110e4610f03565b5b5f6110f28a828b016110b6565b975050602088013567ffffffffffffffff81111561111357611112610f07565b5b61111f8a828b01610f17565b9650965050604088013567ffffffffffffffff81111561114257611141610f07565b5b61114e8a828b01610f17565b9450945050606088013567ffffffffffffffff81111561117157611170610f07565b5b61117d8a828b01610f17565b925092505092959891949750929550565b5f805f805f80606087890312156111a8576111a7610f03565b5b5f87013567ffffffffffffffff8111156111c5576111c4610f07565b5b6111d189828a01610f17565b9650965050602087013567ffffffffffffffff8111156111f4576111f3610f07565b5b61120089828a01610f17565b9450945050604087013567ffffffffffffffff81111561122357611222610f07565b5b61122f89828a01610f17565b92509250509295509295509295565b5f81519050919050565b5f82825260208201905092915050565b5f819050602082019050919050565b6112708161103a565b82525050565b5f81519050919050565b5f82825260208201905092915050565b5f5b838110156112ad578082015181840152602081019050611292565b5f8484015250505050565b5f601f19601f8301169050919050565b5f6112d282611276565b6112dc8185611280565b93506112ec818560208601611290565b6112f5816112b8565b840191505092915050565b61130981610fea565b82525050565b5f608083015f8301516113245f860182611267565b506020830151848203602086015261133c82826112c8565b91505060408301516113516040860182611300565b5060608301516113646060860182611300565b508091505092915050565b5f61137a838361130f565b905092915050565b5f602082019050919050565b5f6113988261123e565b6113a28185611248565b9350836020820285016113b485611258565b805f5b858110156113ef57848403895281516113d0858261136f565b94506113db83611382565b925060208a019950506001810190506113b7565b50829750879550505050505092915050565b5f6020820190508181035f830152611419818461138e565b905092915050565b61142a8161103a565b82525050565b5f6020820190506114435f830184611421565b92915050565b5f82825260208201905092915050565b7f52657175697265732065786163746c7920302e312045544800000000000000005f82015250565b5f61148d601883611449565b915061149882611459565b602082019050919050565b5f6020820190508181035f8301526114ba81611481565b9050919050565b828183375f83830152505050565b5f6114da8385611449565b93506114e78385846114c1565b6114f0836112b8565b840190509392505050565b5f6060820190508181035f8301526115148187896114cf565b905081810360208301526115298185876114cf565b90506115386040830184610ff3565b9695505050505050565b7f4e487b71000000000000000000000000000000000000000000000000000000005f52601160045260245ffd5b5f61157982610fea565b915061158483610fea565b925082820190508082111561159c5761159b611542565b5b92915050565b7f4461696c7920636865636b2d696e20636f6f6c646f776e2061637469766500005f82015250565b5f6115d6601e83611449565b91506115e1826115a2565b602082019050919050565b5f6020820190508181035f830152611603816115ca565b9050919050565b5f819050919050565b5f819050919050565b5f61163661163161162c8461160a565b611613565b610fea565b9050919050565b6116468161161c565b82525050565b5f60808201905061165f5f83018961163d565b81810360208301526116728187896114cf565b905081810360408301526116878185876114cf565b90506116966060830184610ff3565b979650505050505050565b7f4f6e6c79206f776e6572000000000000000000000000000000000000000000005f82015250565b5f6116d5600a83611449565b91506116e0826116a1565b602082019050919050565b5f6020820190508181035f830152611702816116c9565b9050919050565b7f4e487b71000000000000000000000000000000000000000000000000000000005f52604160045260245ffd5b7f4e487b71000000000000000000000000000000000000000000000000000000005f52602260045260245ffd5b5f600282049050600182168061177a57607f821691505b60208210810361178d5761178c611736565b5b50919050565b5f819050815f5260205f209050919050565b5f6020601f8301049050919050565b5f82821b905092915050565b5f600883026117ef7fffffffffffffffffffffffffffffffffffffffffffffffffffffffffffffffff826117b4565b6117f986836117b4565b95508019841693508086168417925050509392505050565b5f61182b61182661182184610fea565b611613565b610fea565b9050919050565b5f819050919050565b61184483611811565b61185861185082611832565b8484546117c0565b825550505050565b5f90565b61186c611860565b61187781848461183b565b505050565b5b8181101561189a5761188f5f82611864565b60018101905061187d565b5050565b601f8211156118df576118b081611793565b6118b9846117a5565b810160208510156118c8578190505b6118dc6118d4856117a5565b83018261187c565b50505b505050565b5f82821c905092915050565b5f6118ff5f19846008026118e4565b1980831691505092915050565b5f61191783836118f0565b9150826002028217905092915050565b61193082611276565b67ffffffffffffffff81111561194957611948611709565b5b6119538254611763565b61195e82828561189e565b5f60209050601f83116001811461198f575f841561197d578287015190505b611987858261190c565b8655506119ee565b601f19841661199d86611793565b5f5b828110156119c45784890151825560018201915060208501945060208101905061199f565b868310156119e157848901516119dd601f8916826118f0565b8355505b6001600288020188555050505b505050505050565b5f6080820190508181035f830152611a0f81898b6114cf565b9050611a1e6020830188610ff3565b8181036040830152611a318186886114cf565b90508181036060830152611a468184866114cf565b905098975050505050505050565b5f6060820190508181035f830152611a6d81888a6114cf565b90508181036020830152611a828186886114cf565b90508181036040830152611a978184866114cf565b9050979650505050505050565b7f4e487b71000000000000000000000000000000000000000000000000000000005f52603260045260245ffd5b5f611adb82610fea565b9150611ae683610fea565b9250828203905081811115611afe57611afd611542565b5b92915050565b5f81549050611b1281611763565b9050919050565b818103611b27575050611bfc565b611b3082611b04565b67ffffffffffffffff811115611b4957611b48611709565b5b611b538254611763565b611b5e82828561189e565b5f601f831160018114611b8b575f8415611b79578287015490505b611b83858261190c565b865550611bf5565b601f198416611b9987611793565b9650611ba486611793565b5f5b82811015611bcb57848901548255600182019150600185019450602081019050611ba6565b86831015611be85784890154611be4601f8916826118f0565b8355505b6001600288020188555050505b5050505050505b565b5f611c0882610fea565b91505f8203611c1a57611c19611542565b5b60018203905091905056fea2646970667358221220a65759223409af5977f8e1780ae6a9a97dec4ada2d81bdf44b1064ae0d64e5c664736f6c63430008180033","opcodes":"PUSH1 0x80 PUSH1 0x40 MSTORE CALLVALUE DUP1 ISZERO PUSH2 0xF JUMPI PUSH0 DUP1 REVERT JUMPDEST POP CALLER PUSH0 DUP1 PUSH2 0x100 EXP DUP2 SLOAD DUP2 PUSH20 0xFFFFFFFFFFFFFFFFFFFFFFFFFFFFFFFFFFFFFFFF MUL NOT AND SWAP1 DUP4 PUSH20 0xFFFFFFFFFFFFFFFFFFFFFFFFFFFFFFFFFFFFFFFF AND MUL OR SWAP1 SSTORE POP PUSH2 0x1C5B DUP1 PUSH2 0x5C PUSH0 CODECOPY PUSH0 RETURN INVALID PUSH1 0x80 PUSH1 0x40 MSTORE PUSH1 0x4 CALLDATASIZE LT PUSH2 0xA6 JUMPI PUSH0 CALLDATALOAD PUSH1 0xE0 SHR DUP1 PUSH4 0x478A41FD GT PUSH2 0x63 JUMPI DUP1 PUSH4 0x478A41FD EQ PUSH2 0x17A JUMPI DUP1 PUSH4 0x50063037 EQ PUSH2 0x196 JUMPI DUP1 PUSH4 0x6D763A6E EQ PUSH2 0x1D2 JUMPI DUP1 PUSH4 0x8DA5CB5B EQ PUSH2 0x1FC JUMPI DUP1 PUSH4 0xDC0C695F EQ PUSH2 0x226 JUMPI DUP1 PUSH4 0xEF6FDB1C EQ PUSH2 0x262 JUMPI PUSH2 0xA6 JUMP JUMPDEST DUP1 PUSH4 0x44C96E4 EQ PUSH2 0xAA JUMPI DUP1 PUSH4 0x1001333A EQ PUSH2 0xC6 JUMPI DUP1 PUSH4 0x1CFCC5D4 EQ PUSH2 0xF0 JUMPI DUP1 PUSH4 0x3CCFD60B EQ PUSH2 0x10C JUMPI DUP1 PUSH4 0x3F224C64 EQ PUSH2 0x122 JUMPI DUP1 PUSH4 0x43A8B7A5 EQ PUSH2 0x15E JUMPI JUMPDEST PUSH0 DUP1 REVERT JUMPDEST PUSH2 0xC4 PUSH1 0x4 DUP1 CALLDATASIZE SUB DUP2 ADD SWAP1 PUSH2 0xBF SWAP2 SWAP1 PUSH2 0xF6C JUMP JUMPDEST PUSH2 0x29E JUMP JUMPDEST STOP JUMPDEST CALLVALUE DUP1 ISZERO PUSH2 0xD1 JUMPI PUSH0 DUP1 REVERT JUMPDEST POP PUSH2 0xDA PUSH2 0x342 JUMP JUMPDEST PUSH1 0x40 MLOAD PUSH2 0xE7 SWAP2 SWAP1 PUSH2 0x1002 JUMP JUMPDEST PUSH1 0x40 MLOAD DUP1 SWAP2 SUB SWAP1 RETURN JUMPDEST PUSH2 0x10A PUSH1 0x4 DUP1 CALLDATASIZE SUB DUP2 ADD SWAP1 PUSH2 0x105 SWAP2 SWAP1 PUSH2 0xF6C JUMP JUMPDEST PUSH2 0x34C JUMP JUMPDEST STOP JUMPDEST CALLVALUE DUP1 ISZERO PUSH2 0x117 JUMPI PUSH0 DUP1 REVERT JUMPDEST POP PUSH2 0x120 PUSH2 0x517 JUMP JUMPDEST STOP JUMPDEST CALLVALUE DUP1 ISZERO PUSH2 0x12D JUMPI PUSH0 DUP1 REVERT JUMPDEST POP PUSH2 0x148 PUSH1 0x4 DUP1 CALLDATASIZE SUB DUP2 ADD SWAP1 PUSH2 0x143 SWAP2 SWAP1 PUSH2 0x1075 JUMP JUMPDEST PUSH2 0x609 JUMP JUMPDEST PUSH1 0x40 MLOAD PUSH2 0x155 SWAP2 SWAP1 PUSH2 0x1002 JUMP JUMPDEST PUSH1 0x40 MLOAD DUP1 SWAP2 SUB SWAP1 RETURN JUMPDEST PUSH2 0x178 PUSH1 0x4 DUP1 CALLDATASIZE SUB DUP2 ADD SWAP1 PUSH2 0x173 SWAP2 SWAP1 PUSH2 0x10CA JUMP JUMPDEST PUSH2 0x61E JUMP JUMPDEST STOP JUMPDEST PUSH2 0x194 PUSH1 0x4 DUP1 CALLDATASIZE SUB DUP2 ADD SWAP1 PUSH2 0x18F SWAP2 SWAP1 PUSH2 0x118E JUMP JUMPDEST PUSH2 0x86B JUMP JUMPDEST STOP JUMPDEST CALLVALUE DUP1 ISZERO PUSH2 0x1A1 JUMPI PUSH0 DUP1 REVERT JUMPDEST POP PUSH2 0x1BC PUSH1 0x4 DUP1 CALLDATASIZE SUB DUP2 ADD SWAP1 PUSH2 0x1B7 SWAP2 SWAP1 PUSH2 0x1075 JUMP JUMPDEST PUSH2 0x913 JUMP JUMPDEST PUSH1 0x40 MLOAD PUSH2 0x1C9 SWAP2 SWAP1 PUSH2 0x1002 JUMP JUMPDEST PUSH1 0x40 MLOAD DUP1 SWAP2 SUB SWAP1 RETURN JUMPDEST CALLVALUE DUP1 ISZERO PUSH2 0x1DD JUMPI PUSH0 DUP1 REVERT JUMPDEST POP PUSH2 0x1E6 PUSH2 0x959 JUMP JUMPDEST PUSH1 0x40 MLOAD PUSH2 0x1F3 SWAP2 SWAP1 PUSH2 0x1401 JUMP JUMPDEST PUSH1 0x40 MLOAD DUP1 SWAP2 SUB SWAP1 RETURN JUMPDEST CALLVALUE DUP1 ISZERO PUSH2 0x207 JUMPI PUSH0 DUP1 REVERT JUMPDEST POP PUSH2 0x210 PUSH2 0xB31 JUMP JUMPDEST PUSH1 0x40 MLOAD PUSH2 0x21D SWAP2 SWAP1 PUSH2 0x1430 JUMP JUMPDEST PUSH1 0x40 MLOAD DUP1 SWAP2 SUB SWAP1 RETURN JUMPDEST CALLVALUE DUP1 ISZERO PUSH2 0x231 JUMPI PUSH0 DUP1 REVERT JUMPDEST POP PUSH2 0x24C PUSH1 0x4 DUP1 CALLDATASIZE SUB DUP2 ADD SWAP1 PUSH2 0x247 SWAP2 SWAP1 PUSH2 0x1075 JUMP JUMPDEST PUSH2 0xB54 JUMP JUMPDEST PUSH1 0x40 MLOAD PUSH2 0x259 SWAP2 SWAP1 PUSH2 0x1002 JUMP JUMPDEST PUSH1 0x40 MLOAD DUP1 SWAP2 SUB SWAP1 RETURN JUMPDEST CALLVALUE DUP1 ISZERO PUSH2 0x26D JUMPI PUSH0 DUP1 REVERT JUMPDEST POP PUSH2 0x288 PUSH1 0x4 DUP1 CALLDATASIZE SUB DUP2 ADD SWAP1 PUSH2 0x283 SWAP2 SWAP1 PUSH2 0x1075 JUMP JUMPDEST PUSH2 0xB69 JUMP JUMPDEST PUSH1 0x40 MLOAD PUSH2 0x295 SWAP2 SWAP1 PUSH2 0x1002 JUMP JUMPDEST PUSH1 0x40 MLOAD DUP1 SWAP2 SUB SWAP1 RETURN JUMPDEST PUSH6 0x9184E72A000 CALLVALUE EQ PUSH2 0x2E6 JUMPI PUSH1 0x40 MLOAD PUSH32 0x8C379A000000000000000000000000000000000000000000000000000000000 DUP2 MSTORE PUSH1 0x4 ADD PUSH2 0x2DD SWAP1 PUSH2 0x14A3 JUMP JUMPDEST PUSH1 0x40 MLOAD DUP1 SWAP2 SUB SWAP1 REVERT JUMPDEST CALLER PUSH20 0xFFFFFFFFFFFFFFFFFFFFFFFFFFFFFFFFFFFFFFFF AND PUSH32 0x94965BC8D78B90B287B4C4AB27F7E409A629262C533B0AB295FC6A5078CA796C DUP6 DUP6 DUP6 DUP6 TIMESTAMP PUSH1 0x40 MLOAD PUSH2 0x334 SWAP6 SWAP5 SWAP4 SWAP3 SWAP2 SWAP1 PUSH2 0x14FB JUMP JUMPDEST PUSH1 0x40 MLOAD DUP1 SWAP2 SUB SWAP1 LOG2 POP POP POP POP JUMP JUMPDEST PUSH6 0x9184E72A000 DUP2 JUMP JUMPDEST PUSH6 0x9184E72A000 CALLVALUE EQ PUSH2 0x394 JUMPI PUSH1 0x40 MLOAD PUSH32 0x8C379A000000000000000000000000000000000000000000000000000000000 DUP2 MSTORE PUSH1 0x4 ADD PUSH2 0x38B SWAP1 PUSH2 0x14A3 JUMP JUMPDEST PUSH1 0x40 MLOAD DUP1 SWAP2 SUB SWAP1 REVERT JUMPDEST PUSH3 0x15180 PUSH1 0x2 PUSH0 CALLER PUSH20 0xFFFFFFFFFFFFFFFFFFFFFFFFFFFFFFFFFFFFFFFF AND PUSH20 0xFFFFFFFFFFFFFFFFFFFFFFFFFFFFFFFFFFFFFFFF AND DUP2 MSTORE PUSH1 0x20 ADD SWAP1 DUP2 MSTORE PUSH1 0x20 ADD PUSH0 KECCAK256 SLOAD PUSH2 0x3E0 SWAP2 SWAP1 PUSH2 0x156F JUMP JUMPDEST TIMESTAMP LT ISZERO PUSH2 0x422 JUMPI PUSH1 0x40 MLOAD PUSH32 0x8C379A000000000000000000000000000000000000000000000000000000000 DUP2 MSTORE PUSH1 0x4 ADD PUSH2 0x419 SWAP1 PUSH2 0x15EC JUMP JUMPDEST PUSH1 0x40 MLOAD DUP1 SWAP2 SUB SWAP1 REVERT JUMPDEST TIMESTAMP PUSH1 0x2 PUSH0 CALLER PUSH20 0xFFFFFFFFFFFFFFFFFFFFFFFFFFFFFFFFFFFFFFFF AND PUSH20 0xFFFFFFFFFFFFFFFFFFFFFFFFFFFFFFFFFFFFFFFF AND DUP2 MSTORE PUSH1 0x20 ADD SWAP1 DUP2 MSTORE PUSH1 0x20 ADD PUSH0 KECCAK256 DUP2 SWAP1 SSTORE POP PUSH1 0xA PUSH1 0x4 PUSH0 CALLER PUSH20 0xFFFFFFFFFFFFFFFFFFFFFFFFFFFFFFFFFFFFFFFF AND PUSH20 0xFFFFFFFFFFFFFFFFFFFFFFFFFFFFFFFFFFFFFFFF AND DUP2 MSTORE PUSH1 0x20 ADD SWAP1 DUP2 MSTORE PUSH1 0x20 ADD PUSH0 KECCAK256 PUSH0 DUP3 DUP3 SLOAD PUSH2 0x4B1 SWAP2 SWAP1 PUSH2 0x156F JUMP JUMPDEST SWAP3 POP POP DUP2 SWAP1 SSTORE POP CALLER PUSH20 0xFFFFFFFFFFFFFFFFFFFFFFFFFFFFFFFFFFFFFFFF AND PUSH32 0xD0C595FEB7CC878E58FE986BB773F3DBBDBF7BC9D6CFA4754A8D07FF7CE4EC1A PUSH1 0xA DUP7 DUP7 DUP7 DUP7 TIMESTAMP PUSH1 0x40 MLOAD PUSH2 0x509 SWAP7 SWAP6 SWAP5 SWAP4 SWAP3 SWAP2 SWAP1 PUSH2 0x164C JUMP JUMPDEST PUSH1 0x40 MLOAD DUP1 SWAP2 SUB SWAP1 LOG2 POP POP POP POP JUMP JUMPDEST PUSH0 DUP1 SLOAD SWAP1 PUSH2 0x100 EXP SWAP1 DIV PUSH20 0xFFFFFFFFFFFFFFFFFFFFFFFFFFFFFFFFFFFFFFFF AND PUSH20 0xFFFFFFFFFFFFFFFFFFFFFFFFFFFFFFFFFFFFFFFF AND CALLER PUSH20 0xFFFFFFFFFFFFFFFFFFFFFFFFFFFFFFFFFFFFFFFF AND EQ PUSH2 0x5A4 JUMPI PUSH1 0x40 MLOAD PUSH32 0x8C379A000000000000000000000000000000000000000000000000000000000 DUP2 MSTORE PUSH1 0x4 ADD PUSH2 0x59B SWAP1 PUSH2 0x16EB JUMP JUMPDEST PUSH1 0x40 MLOAD DUP1 SWAP2 SUB SWAP1 REVERT JUMPDEST PUSH0 DUP1 SLOAD SWAP1 PUSH2 0x100 EXP SWAP1 DIV PUSH20 0xFFFFFFFFFFFFFFFFFFFFFFFFFFFFFFFFFFFFFFFF AND PUSH20 0xFFFFFFFFFFFFFFFFFFFFFFFFFFFFFFFFFFFFFFFF AND PUSH2 0x8FC SELFBALANCE SWAP1 DUP2 ISZERO MUL SWAP1 PUSH1 0x40 MLOAD PUSH0 PUSH1 0x40 MLOAD DUP1 DUP4 SUB DUP2 DUP6 DUP9 DUP9 CALL SWAP4 POP POP POP POP ISZERO DUP1 ISZERO PUSH2 0x606 JUMPI RETURNDATASIZE PUSH0 DUP1 RETURNDATACOPY RETURNDATASIZE PUSH0 REVERT JUMPDEST POP JUMP JUMPDEST PUSH1 0x4 PUSH1 0x20 MSTORE DUP1 PUSH0 MSTORE PUSH1 0x40 PUSH0 KECCAK256 PUSH0 SWAP2 POP SWAP1 POP SLOAD DUP2 JUMP JUMPDEST PUSH6 0x9184E72A000 CALLVALUE EQ PUSH2 0x666 JUMPI PUSH1 0x40 MLOAD PUSH32 0x8C379A000000000000000000000000000000000000000000000000000000000 DUP2 MSTORE PUSH1 0x4 ADD PUSH2 0x65D SWAP1 PUSH2 0x14A3 JUMP JUMPDEST PUSH1 0x40 MLOAD DUP1 SWAP2 SUB SWAP1 REVERT JUMPDEST PUSH1 0x3 PUSH0 CALLER PUSH20 0xFFFFFFFFFFFFFFFFFFFFFFFFFFFFFFFFFFFFFFFF AND PUSH20 0xFFFFFFFFFFFFFFFFFFFFFFFFFFFFFFFFFFFFFFFF AND DUP2 MSTORE PUSH1 0x20 ADD SWAP1 DUP2 MSTORE PUSH1 0x20 ADD PUSH0 KECCAK256 SLOAD DUP8 GT ISZERO PUSH2 0x6EE JUMPI DUP7 PUSH1 0x3 PUSH0 CALLER PUSH20 0xFFFFFFFFFFFFFFFFFFFFFFFFFFFFFFFFFFFFFFFF AND PUSH20 0xFFFFFFFFFFFFFFFFFFFFFFFFFFFFFFFFFFFFFFFF AND DUP2 MSTORE PUSH1 0x20 ADD SWAP1 DUP2 MSTORE PUSH1 0x20 ADD PUSH0 KECCAK256 DUP2 SWAP1 SSTORE POP JUMPDEST PUSH1 0x1 PUSH1 0x40 MLOAD DUP1 PUSH1 0x80 ADD PUSH1 0x40 MSTORE DUP1 CALLER PUSH20 0xFFFFFFFFFFFFFFFFFFFFFFFFFFFFFFFFFFFFFFFF AND DUP2 MSTORE PUSH1 0x20 ADD DUP9 DUP9 DUP1 DUP1 PUSH1 0x1F ADD PUSH1 0x20 DUP1 SWAP2 DIV MUL PUSH1 0x20 ADD PUSH1 0x40 MLOAD SWAP1 DUP2 ADD PUSH1 0x40 MSTORE DUP1 SWAP4 SWAP3 SWAP2 SWAP1 DUP2 DUP2 MSTORE PUSH1 0x20 ADD DUP4 DUP4 DUP1 DUP3 DUP5 CALLDATACOPY PUSH0 DUP2 DUP5 ADD MSTORE PUSH1 0x1F NOT PUSH1 0x1F DUP3 ADD AND SWAP1 POP DUP1 DUP4 ADD SWAP3 POP POP POP POP POP POP POP DUP2 MSTORE PUSH1 0x20 ADD DUP10 DUP2 MSTORE PUSH1 0x20 ADD TIMESTAMP DUP2 MSTORE POP SWAP1 DUP1 PUSH1 0x1 DUP2 SLOAD ADD DUP1 DUP3 SSTORE DUP1 SWAP2 POP POP PUSH1 0x1 SWAP1 SUB SWAP1 PUSH0 MSTORE PUSH1 0x20 PUSH0 KECCAK256 SWAP1 PUSH1 0x4 MUL ADD PUSH0 SWAP1 SWAP2 SWAP1 SWAP2 SWAP1 SWAP2 POP PUSH0 DUP3 ADD MLOAD DUP2 PUSH0 ADD PUSH0 PUSH2 0x100 EXP DUP2 SLOAD DUP2 PUSH20 0xFFFFFFFFFFFFFFFFFFFFFFFFFFFFFFFFFFFFFFFF MUL NOT AND SWAP1 DUP4 PUSH20 0xFFFFFFFFFFFFFFFFFFFFFFFFFFFFFFFFFFFFFFFF AND MUL OR SWAP1 SSTORE POP PUSH1 0x20 DUP3 ADD MLOAD DUP2 PUSH1 0x1 ADD SWAP1 DUP2 PUSH2 0x7E9 SWAP2 SWAP1 PUSH2 0x1927 JUMP JUMPDEST POP PUSH1 0x40 DUP3 ADD MLOAD DUP2 PUSH1 0x2 ADD SSTORE PUSH1 0x60 DUP3 ADD MLOAD DUP2 PUSH1 0x3 ADD SSTORE POP POP PUSH2 0x808 PUSH2 0xB7E JUMP JUMPDEST CALLER PUSH20 0xFFFFFFFFFFFFFFFFFFFFFFFFFFFFFFFFFFFFFFFF AND PUSH32 0xA89E85B54A15A759C551902A9CFADD9C8EBFCB953BF70922A2CA03BE5B489C22 DUP8 DUP8 DUP11 DUP9 DUP9 DUP9 DUP9 PUSH1 0x40 MLOAD PUSH2 0x85A SWAP8 SWAP7 SWAP6 SWAP5 SWAP4 SWAP3 SWAP2 SWAP1 PUSH2 0x19F6 JUMP JUMPDEST PUSH1 0x40 MLOAD DUP1 SWAP2 SUB SWAP1 LOG2 POP POP POP POP POP POP POP JUMP JUMPDEST PUSH6 0x9184E72A000 CALLVALUE EQ PUSH2 0x8B3 JUMPI PUSH1 0x40 MLOAD PUSH32 0x8C379A000000000000000000000000000000000000000000000000000000000 DUP2 MSTORE PUSH1 0x4 ADD PUSH2 0x8AA SWAP1 PUSH2 0x14A3 JUMP JUMPDEST PUSH1 0x40 MLOAD DUP1 SWAP2 SUB SWAP1 REVERT JUMPDEST CALLER PUSH20 0xFFFFFFFFFFFFFFFFFFFFFFFFFFFFFFFFFFFFFFFF AND PUSH32 0xEF94ECFF7052FAAA3F844DF9F88FFA2A0EAAF257CCD06634CAFA680579A3CF81 DUP8 DUP8 DUP8 DUP8 DUP8 DUP8 PUSH1 0x40 MLOAD PUSH2 0x903 SWAP7 SWAP6 SWAP5 SWAP4 SWAP3 SWAP2 SWAP1 PUSH2 0x1A54 JUMP JUMPDEST PUSH1 0x40 MLOAD DUP1 SWAP2 SUB SWAP1 LOG2 POP POP POP POP POP POP JUMP JUMPDEST PUSH0 PUSH1 0x4 PUSH0 DUP4 PUSH20 0xFFFFFFFFFFFFFFFFFFFFFFFFFFFFFFFFFFFFFFFF AND PUSH20 0xFFFFFFFFFFFFFFFFFFFFFFFFFFFFFFFFFFFFFFFF AND DUP2 MSTORE PUSH1 0x20 ADD SWAP1 DUP2 MSTORE PUSH1 0x20 ADD PUSH0 KECCAK256 SLOAD SWAP1 POP SWAP2 SWAP1 POP JUMP JUMPDEST PUSH1 0x60 PUSH0 PUSH1 0xA PUSH1 0x1 DUP1 SLOAD SWAP1 POP LT PUSH2 0x970 JUMPI PUSH1 0xA PUSH2 0x977 JUMP JUMPDEST PUSH1 0x1 DUP1 SLOAD SWAP1 POP JUMPDEST SWAP1 POP PUSH0 DUP2 PUSH8 0xFFFFFFFFFFFFFFFF DUP2 GT ISZERO PUSH2 0x994 JUMPI PUSH2 0x993 PUSH2 0x1709 JUMP JUMPDEST JUMPDEST PUSH1 0x40 MLOAD SWAP1 DUP1 DUP3 MSTORE DUP1 PUSH1 0x20 MUL PUSH1 0x20 ADD DUP3 ADD PUSH1 0x40 MSTORE DUP1 ISZERO PUSH2 0x9CD JUMPI DUP2 PUSH1 0x20 ADD JUMPDEST PUSH2 0x9BA PUSH2 0xEC8 JUMP JUMPDEST DUP2 MSTORE PUSH1 0x20 ADD SWAP1 PUSH1 0x1 SWAP1 SUB SWAP1 DUP2 PUSH2 0x9B2 JUMPI SWAP1 POP JUMPDEST POP SWAP1 POP PUSH0 JUMPDEST DUP3 DUP2 LT ISZERO PUSH2 0xB28 JUMPI PUSH1 0x1 DUP2 DUP2 SLOAD DUP2 LT PUSH2 0x9EE JUMPI PUSH2 0x9ED PUSH2 0x1AA4 JUMP JUMPDEST JUMPDEST SWAP1 PUSH0 MSTORE PUSH1 0x20 PUSH0 KECCAK256 SWAP1 PUSH1 0x4 MUL ADD PUSH1 0x40 MLOAD DUP1 PUSH1 0x80 ADD PUSH1 0x40 MSTORE SWAP1 DUP2 PUSH0 DUP3 ADD PUSH0 SWAP1 SLOAD SWAP1 PUSH2 0x100 EXP SWAP1 DIV PUSH20 0xFFFFFFFFFFFFFFFFFFFFFFFFFFFFFFFFFFFFFFFF AND PUSH20 0xFFFFFFFFFFFFFFFFFFFFFFFFFFFFFFFFFFFFFFFF AND PUSH20 0xFFFFFFFFFFFFFFFFFFFFFFFFFFFFFFFFFFFFFFFF AND DUP2 MSTORE PUSH1 0x20 ADD PUSH1 0x1 DUP3 ADD DUP1 SLOAD PUSH2 0xA69 SWAP1 PUSH2 0x1763 JUMP JUMPDEST DUP1 PUSH1 0x1F ADD PUSH1 0x20 DUP1 SWAP2 DIV MUL PUSH1 0x20 ADD PUSH1 0x40 MLOAD SWAP1 DUP2 ADD PUSH1 0x40 MSTORE DUP1 SWAP3 SWAP2 SWAP1 DUP2 DUP2 MSTORE PUSH1 0x20 ADD DUP3 DUP1 SLOAD PUSH2 0xA95 SWAP1 PUSH2 0x1763 JUMP JUMPDEST DUP1 ISZERO PUSH2 0xAE0 JUMPI DUP1 PUSH1 0x1F LT PUSH2 0xAB7 JUMPI PUSH2 0x100 DUP1 DUP4 SLOAD DIV MUL DUP4 MSTORE SWAP2 PUSH1 0x20 ADD SWAP2 PUSH2 0xAE0 JUMP JUMPDEST DUP3 ADD SWAP2 SWAP1 PUSH0 MSTORE PUSH1 0x20 PUSH0 KECCAK256 SWAP1 JUMPDEST DUP2 SLOAD DUP2 MSTORE SWAP1 PUSH1 0x1 ADD SWAP1 PUSH1 0x20 ADD DUP1 DUP4 GT PUSH2 0xAC3 JUMPI DUP3 SWAP1 SUB PUSH1 0x1F AND DUP3 ADD SWAP2 JUMPDEST POP POP POP POP POP DUP2 MSTORE PUSH1 0x20 ADD PUSH1 0x2 DUP3 ADD SLOAD DUP2 MSTORE PUSH1 0x20 ADD PUSH1 0x3 DUP3 ADD SLOAD DUP2 MSTORE POP POP DUP3 DUP3 DUP2 MLOAD DUP2 LT PUSH2 0xB10 JUMPI PUSH2 0xB0F PUSH2 0x1AA4 JUMP JUMPDEST JUMPDEST PUSH1 0x20 MUL PUSH1 0x20 ADD ADD DUP2 SWAP1 MSTORE POP DUP1 DUP1 PUSH1 0x1 ADD SWAP2 POP POP PUSH2 0x9D2 JUMP JUMPDEST POP DUP1 SWAP3 POP POP POP SWAP1 JUMP JUMPDEST PUSH0 DUP1 SLOAD SWAP1 PUSH2 0x100 EXP SWAP1 DIV PUSH20 0xFFFFFFFFFFFFFFFFFFFFFFFFFFFFFFFFFFFFFFFF AND DUP2 JUMP JUMPDEST PUSH1 0x3 PUSH1 0x20 MSTORE DUP1 PUSH0 MSTORE PUSH1 0x40 PUSH0 KECCAK256 PUSH0 SWAP2 POP SWAP1 POP SLOAD DUP2 JUMP JUMPDEST PUSH1 0x2 PUSH1 0x20 MSTORE DUP1 PUSH0 MSTORE PUSH1 0x40 PUSH0 KECCAK256 PUSH0 SWAP2 POP SWAP1 POP SLOAD DUP2 JUMP JUMPDEST PUSH0 PUSH1 0x1 DUP1 SLOAD SWAP1 POP SWAP1 POP PUSH1 0x2 DUP2 LT ISZERO PUSH2 0xB96 JUMPI POP PUSH2 0xEC6 JUMP JUMPDEST PUSH0 PUSH1 0x1 DUP3 PUSH2 0xBA4 SWAP2 SWAP1 PUSH2 0x1AD1 JUMP JUMPDEST SWAP1 POP JUMPDEST PUSH0 DUP2 GT ISZERO PUSH2 0xEC3 JUMPI PUSH1 0x1 DUP1 DUP3 PUSH2 0xBBD SWAP2 SWAP1 PUSH2 0x1AD1 JUMP JUMPDEST DUP2 SLOAD DUP2 LT PUSH2 0xBCE JUMPI PUSH2 0xBCD PUSH2 0x1AA4 JUMP JUMPDEST JUMPDEST SWAP1 PUSH0 MSTORE PUSH1 0x20 PUSH0 KECCAK256 SWAP1 PUSH1 0x4 MUL ADD PUSH1 0x2 ADD SLOAD PUSH1 0x1 DUP3 DUP2 SLOAD DUP2 LT PUSH2 0xBF2 JUMPI PUSH2 0xBF1 PUSH2 0x1AA4 JUMP JUMPDEST JUMPDEST SWAP1 PUSH0 MSTORE PUSH1 0x20 PUSH0 KECCAK256 SWAP1 PUSH1 0x4 MUL ADD PUSH1 0x2 ADD SLOAD GT ISZERO PUSH2 0xEAB JUMPI PUSH0 PUSH1 0x1 DUP3 DUP2 SLOAD DUP2 LT PUSH2 0xC1D JUMPI PUSH2 0xC1C PUSH2 0x1AA4 JUMP JUMPDEST JUMPDEST SWAP1 PUSH0 MSTORE PUSH1 0x20 PUSH0 KECCAK256 SWAP1 PUSH1 0x4 MUL ADD PUSH1 0x40 MLOAD DUP1 PUSH1 0x80 ADD PUSH1 0x40 MSTORE SWAP1 DUP2 PUSH0 DUP3 ADD PUSH0 SWAP1 SLOAD SWAP1 PUSH2 0x100 EXP SWAP1 DIV PUSH20 0xFFFFFFFFFFFFFFFFFFFFFFFFFFFFFFFFFFFFFFFF AND PUSH20 0xFFFFFFFFFFFFFFFFFFFFFFFFFFFFFFFFFFFFFFFF AND PUSH20 0xFFFFFFFFFFFFFFFFFFFFFFFFFFFFFFFFFFFFFFFF AND DUP2 MSTORE PUSH1 0x20 ADD PUSH1 0x1 DUP3 ADD DUP1 SLOAD PUSH2 0xC98 SWAP1 PUSH2 0x1763 JUMP JUMPDEST DUP1 PUSH1 0x1F ADD PUSH1 0x20 DUP1 SWAP2 DIV MUL PUSH1 0x20 ADD PUSH1 0x40 MLOAD SWAP1 DUP2 ADD PUSH1 0x40 MSTORE DUP1 SWAP3 SWAP2 SWAP1 DUP2 DUP2 MSTORE PUSH1 0x20 ADD DUP3 DUP1 SLOAD PUSH2 0xCC4 SWAP1 PUSH2 0x1763 JUMP JUMPDEST DUP1 ISZERO PUSH2 0xD0F JUMPI DUP1 PUSH1 0x1F LT PUSH2 0xCE6 JUMPI PUSH2 0x100 DUP1 DUP4 SLOAD DIV MUL DUP4 MSTORE SWAP2 PUSH1 0x20 ADD SWAP2 PUSH2 0xD0F JUMP JUMPDEST DUP3 ADD SWAP2 SWAP1 PUSH0 MSTORE PUSH1 0x20 PUSH0 KECCAK256 SWAP1 JUMPDEST DUP2 SLOAD DUP2 MSTORE SWAP1 PUSH1 0x1 ADD SWAP1 PUSH1 0x20 ADD DUP1 DUP4 GT PUSH2 0xCF2 JUMPI DUP3 SWAP1 SUB PUSH1 0x1F AND DUP3 ADD SWAP2 JUMPDEST POP POP POP POP POP DUP2 MSTORE PUSH1 0x20 ADD PUSH1 0x2 DUP3 ADD SLOAD DUP2 MSTORE PUSH1 0x20 ADD PUSH1 0x3 DUP3 ADD SLOAD DUP2 MSTORE POP POP SWAP1 POP PUSH1 0x1 DUP1 DUP4 PUSH2 0xD3C SWAP2 SWAP1 PUSH2 0x1AD1 JUMP JUMPDEST DUP2 SLOAD DUP2 LT PUSH2 0xD4D JUMPI PUSH2 0xD4C PUSH2 0x1AA4 JUMP JUMPDEST JUMPDEST SWAP1 PUSH0 MSTORE PUSH1 0x20 PUSH0 KECCAK256 SWAP1 PUSH1 0x4 MUL ADD PUSH1 0x1 DUP4 DUP2 SLOAD DUP2 LT PUSH2 0xD6D JUMPI PUSH2 0xD6C PUSH2 0x1AA4 JUMP JUMPDEST JUMPDEST SWAP1 PUSH0 MSTORE PUSH1 0x20 PUSH0 KECCAK256 SWAP1 PUSH1 0x4 MUL ADD PUSH0 DUP3 ADD PUSH0 SWAP1 SLOAD SWAP1 PUSH2 0x100 EXP SWAP1 DIV PUSH20 0xFFFFFFFFFFFFFFFFFFFFFFFFFFFFFFFFFFFFFFFF AND DUP2 PUSH0 ADD PUSH0 PUSH2 0x100 EXP DUP2 SLOAD DUP2 PUSH20 0xFFFFFFFFFFFFFFFFFFFFFFFFFFFFFFFFFFFFFFFF MUL NOT AND SWAP1 DUP4 PUSH20 0xFFFFFFFFFFFFFFFFFFFFFFFFFFFFFFFFFFFFFFFF AND MUL OR SWAP1 SSTORE POP PUSH1 0x1 DUP3 ADD DUP2 PUSH1 0x1 ADD SWAP1 DUP2 PUSH2 0xDF0 SWAP2 SWAP1 PUSH2 0x1B19 JUMP JUMPDEST POP PUSH1 0x2 DUP3 ADD SLOAD DUP2 PUSH1 0x2 ADD SSTORE PUSH1 0x3 DUP3 ADD SLOAD DUP2 PUSH1 0x3 ADD SSTORE SWAP1 POP POP DUP1 PUSH1 0x1 DUP1 DUP5 PUSH2 0xE17 SWAP2 SWAP1 PUSH2 0x1AD1 JUMP JUMPDEST DUP2 SLOAD DUP2 LT PUSH2 0xE28 JUMPI PUSH2 0xE27 PUSH2 0x1AA4 JUMP JUMPDEST JUMPDEST SWAP1 PUSH0 MSTORE PUSH1 0x20 PUSH0 KECCAK256 SWAP1 PUSH1 0x4 MUL ADD PUSH0 DUP3 ADD MLOAD DUP2 PUSH0 ADD PUSH0 PUSH2 0x100 EXP DUP2 SLOAD DUP2 PUSH20 0xFFFFFFFFFFFFFFFFFFFFFFFFFFFFFFFFFFFFFFFF MUL NOT AND SWAP1 DUP4 PUSH20 0xFFFFFFFFFFFFFFFFFFFFFFFFFFFFFFFFFFFFFFFF AND MUL OR SWAP1 SSTORE POP PUSH1 0x20 DUP3 ADD MLOAD DUP2 PUSH1 0x1 ADD SWAP1 DUP2 PUSH2 0xE8D SWAP2 SWAP1 PUSH2 0x1927 JUMP JUMPDEST POP PUSH1 0x40 DUP3 ADD MLOAD DUP2 PUSH1 0x2 ADD SSTORE PUSH1 0x60 DUP3 ADD MLOAD DUP2 PUSH1 0x3 ADD SSTORE SWAP1 POP POP POP PUSH2 0xEB0 JUMP JUMPDEST PUSH2 0xEC3 JUMP JUMPDEST DUP1 DUP1 PUSH2 0xEBB SWAP1 PUSH2 0x1BFE JUMP JUMPDEST SWAP2 POP POP PUSH2 0xBA7 JUMP JUMPDEST POP POP JUMPDEST JUMP JUMPDEST PUSH1 0x40 MLOAD DUP1 PUSH1 0x80 ADD PUSH1 0x40 MSTORE DUP1 PUSH0 PUSH20 0xFFFFFFFFFFFFFFFFFFFFFFFFFFFFFFFFFFFFFFFF AND DUP2 MSTORE PUSH1 0x20 ADD PUSH1 0x60 DUP2 MSTORE PUSH1 0x20 ADD PUSH0 DUP2 MSTORE PUSH1 0x20 ADD PUSH0 DUP2 MSTORE POP SWAP1 JUMP JUMPDEST PUSH0 DUP1 REVERT JUMPDEST PUSH0 DUP1 REVERT JUMPDEST PUSH0 DUP1 REVERT JUMPDEST PUSH0 DUP1 REVERT JUMPDEST PUSH0 DUP1 REVERT JUMPDEST PUSH0 DUP1 DUP4 PUSH1 0x1F DUP5 ADD SLT PUSH2 0xF2C JUMPI PUSH2 0xF2B PUSH2 0xF0B JUMP JUMPDEST JUMPDEST DUP3 CALLDATALOAD SWAP1 POP PUSH8 0xFFFFFFFFFFFFFFFF DUP2 GT ISZERO PUSH2 0xF49 JUMPI PUSH2 0xF48 PUSH2 0xF0F JUMP JUMPDEST JUMPDEST PUSH1 0x20 DUP4 ADD SWAP2 POP DUP4 PUSH1 0x1 DUP3 MUL DUP4 ADD GT ISZERO PUSH2 0xF65 JUMPI PUSH2 0xF64 PUSH2 0xF13 JUMP JUMPDEST JUMPDEST SWAP3 POP SWAP3 SWAP1 POP JUMP JUMPDEST PUSH0 DUP1 PUSH0 DUP1 PUSH1 0x40 DUP6 DUP8 SUB SLT ISZERO PUSH2 0xF84 JUMPI PUSH2 0xF83 PUSH2 0xF03 JUMP JUMPDEST JUMPDEST PUSH0 DUP6 ADD CALLDATALOAD PUSH8 0xFFFFFFFFFFFFFFFF DUP2 GT ISZERO PUSH2 0xFA1 JUMPI PUSH2 0xFA0 PUSH2 0xF07 JUMP JUMPDEST JUMPDEST PUSH2 0xFAD DUP8 DUP3 DUP9 ADD PUSH2 0xF17 JUMP JUMPDEST SWAP5 POP SWAP5 POP POP PUSH1 0x20 DUP6 ADD CALLDATALOAD PUSH8 0xFFFFFFFFFFFFFFFF DUP2 GT ISZERO PUSH2 0xFD0 JUMPI PUSH2 0xFCF PUSH2 0xF07 JUMP JUMPDEST JUMPDEST PUSH2 0xFDC DUP8 DUP3 DUP9 ADD PUSH2 0xF17 JUMP JUMPDEST SWAP3 POP SWAP3 POP POP SWAP3 SWAP6 SWAP2 SWAP5 POP SWAP3 POP JUMP JUMPDEST PUSH0 DUP2 SWAP1 POP SWAP2 SWAP1 POP JUMP JUMPDEST PUSH2 0xFFC DUP2 PUSH2 0xFEA JUMP JUMPDEST DUP3 MSTORE POP POP JUMP JUMPDEST PUSH0 PUSH1 0x20 DUP3 ADD SWAP1 POP PUSH2 0x1015 PUSH0 DUP4 ADD DUP5 PUSH2 0xFF3 JUMP JUMPDEST SWAP3 SWAP2 POP POP JUMP JUMPDEST PUSH0 PUSH20 0xFFFFFFFFFFFFFFFFFFFFFFFFFFFFFFFFFFFFFFFF DUP3 AND SWAP1 POP SWAP2 SWAP1 POP JUMP JUMPDEST PUSH0 PUSH2 0x1044 DUP3 PUSH2 0x101B JUMP JUMPDEST SWAP1 POP SWAP2 SWAP1 POP JUMP JUMPDEST PUSH2 0x1054 DUP2 PUSH2 0x103A JUMP JUMPDEST DUP2 EQ PUSH2 0x105E JUMPI PUSH0 DUP1 REVERT JUMPDEST POP JUMP JUMPDEST PUSH0 DUP2 CALLDATALOAD SWAP1 POP PUSH2 0x106F DUP2 PUSH2 0x104B JUMP JUMPDEST SWAP3 SWAP2 POP POP JUMP JUMPDEST PUSH0 PUSH1 0x20 DUP3 DUP5 SUB SLT ISZERO PUSH2 0x108A JUMPI PUSH2 0x1089 PUSH2 0xF03 JUMP JUMPDEST JUMPDEST PUSH0 PUSH2 0x1097 DUP5 DUP3 DUP6 ADD PUSH2 0x1061 JUMP JUMPDEST SWAP2 POP POP SWAP3 SWAP2 POP POP JUMP JUMPDEST PUSH2 0x10A9 DUP2 PUSH2 0xFEA JUMP JUMPDEST DUP2 EQ PUSH2 0x10B3 JUMPI PUSH0 DUP1 REVERT JUMPDEST POP JUMP JUMPDEST PUSH0 DUP2 CALLDATALOAD SWAP1 POP PUSH2 0x10C4 DUP2 PUSH2 0x10A0 JUMP JUMPDEST SWAP3 SWAP2 POP POP JUMP JUMPDEST PUSH0 DUP1 PUSH0 DUP1 PUSH0 DUP1 PUSH0 PUSH1 0x80 DUP9 DUP11 SUB SLT ISZERO PUSH2 0x10E5 JUMPI PUSH2 0x10E4 PUSH2 0xF03 JUMP JUMPDEST JUMPDEST PUSH0 PUSH2 0x10F2 DUP11 DUP3 DUP12 ADD PUSH2 0x10B6 JUMP JUMPDEST SWAP8 POP POP PUSH1 0x20 DUP9 ADD CALLDATALOAD PUSH8 0xFFFFFFFFFFFFFFFF DUP2 GT ISZERO PUSH2 0x1113 JUMPI PUSH2 0x1112 PUSH2 0xF07 JUMP JUMPDEST JUMPDEST PUSH2 0x111F DUP11 DUP3 DUP12 ADD PUSH2 0xF17 JUMP JUMPDEST SWAP7 POP SWAP7 POP POP PUSH1 0x40 DUP9 ADD CALLDATALOAD PUSH8 0xFFFFFFFFFFFFFFFF DUP2 GT ISZERO PUSH2 0x1142 JUMPI PUSH2 0x1141 PUSH2 0xF07 JUMP JUMPDEST JUMPDEST PUSH2 0x114E DUP11 DUP3 DUP12 ADD PUSH2 0xF17 JUMP JUMPDEST SWAP5 POP SWAP5 POP POP PUSH1 0x60 DUP9 ADD CALLDATALOAD PUSH8 0xFFFFFFFFFFFFFFFF DUP2 GT ISZERO PUSH2 0x1171 JUMPI PUSH2 0x1170 PUSH2 0xF07 JUMP JUMPDEST JUMPDEST PUSH2 0x117D DUP11 DUP3 DUP12 ADD PUSH2 0xF17 JUMP JUMPDEST SWAP3 POP SWAP3 POP POP SWAP3 SWAP6 SWAP9 SWAP2 SWAP5 SWAP8 POP SWAP3 SWAP6 POP JUMP JUMPDEST PUSH0 DUP1 PUSH0 DUP1 PUSH0 DUP1 PUSH1 0x60 DUP8 DUP10 SUB SLT ISZERO PUSH2 0x11A8 JUMPI PUSH2 0x11A7 PUSH2 0xF03 JUMP JUMPDEST JUMPDEST PUSH0 DUP8 ADD CALLDATALOAD PUSH8 0xFFFFFFFFFFFFFFFF DUP2 GT ISZERO PUSH2 0x11C5 JUMPI PUSH2 0x11C4 PUSH2 0xF07 JUMP JUMPDEST JUMPDEST PUSH2 0x11D1 DUP10 DUP3 DUP11 ADD PUSH2 0xF17 JUMP JUMPDEST SWAP7 POP SWAP7 POP POP PUSH1 0x20 DUP8 ADD CALLDATALOAD PUSH8 0xFFFFFFFFFFFFFFFF DUP2 GT ISZERO PUSH2 0x11F4 JUMPI PUSH2 0x11F3 PUSH2 0xF07 JUMP JUMPDEST JUMPDEST PUSH2 0x1200 DUP10 DUP3 DUP11 ADD PUSH2 0xF17 JUMP JUMPDEST SWAP5 POP SWAP5 POP POP PUSH1 0x40 DUP8 ADD CALLDATALOAD PUSH8 0xFFFFFFFFFFFFFFFF DUP2 GT ISZERO PUSH2 0x1223 JUMPI PUSH2 0x1222 PUSH2 0xF07 JUMP JUMPDEST JUMPDEST PUSH2 0x122F DUP10 DUP3 DUP11 ADD PUSH2 0xF17 JUMP JUMPDEST SWAP3 POP SWAP3 POP POP SWAP3 SWAP6 POP SWAP3 SWAP6 POP SWAP3 SWAP6 JUMP JUMPDEST PUSH0 DUP2 MLOAD SWAP1 POP SWAP2 SWAP1 POP JUMP JUMPDEST PUSH0 DUP3 DUP3 MSTORE PUSH1 0x20 DUP3 ADD SWAP1 POP SWAP3 SWAP2 POP POP JUMP JUMPDEST PUSH0 DUP2 SWAP1 POP PUSH1 0x20 DUP3 ADD SWAP1 POP SWAP2 SWAP1 POP JUMP JUMPDEST PUSH2 0x1270 DUP2 PUSH2 0x103A JUMP JUMPDEST DUP3 MSTORE POP POP JUMP JUMPDEST PUSH0 DUP2 MLOAD SWAP1 POP SWAP2 SWAP1 POP JUMP JUMPDEST PUSH0 DUP3 DUP3 MSTORE PUSH1 0x20 DUP3 ADD SWAP1 POP SWAP3 SWAP2 POP POP JUMP JUMPDEST PUSH0 JUMPDEST DUP4 DUP2 LT ISZERO PUSH2 0x12AD JUMPI DUP1 DUP3 ADD MLOAD DUP2 DUP5 ADD MSTORE PUSH1 0x20 DUP2 ADD SWAP1 POP PUSH2 0x1292 JUMP JUMPDEST PUSH0 DUP5 DUP5 ADD MSTORE POP POP POP POP JUMP JUMPDEST PUSH0 PUSH1 0x1F NOT PUSH1 0x1F DUP4 ADD AND SWAP1 POP SWAP2 SWAP1 POP JUMP JUMPDEST PUSH0 PUSH2 0x12D2 DUP3 PUSH2 0x1276 JUMP JUMPDEST PUSH2 0x12DC DUP2 DUP6 PUSH2 0x1280 JUMP JUMPDEST SWAP4 POP PUSH2 0x12EC DUP2 DUP6 PUSH1 0x20 DUP7 ADD PUSH2 0x1290 JUMP JUMPDEST PUSH2 0x12F5 DUP2 PUSH2 0x12B8 JUMP JUMPDEST DUP5 ADD SWAP2 POP POP SWAP3 SWAP2 POP POP JUMP JUMPDEST PUSH2 0x1309 DUP2 PUSH2 0xFEA JUMP JUMPDEST DUP3 MSTORE POP POP JUMP JUMPDEST PUSH0 PUSH1 0x80 DUP4 ADD PUSH0 DUP4 ADD MLOAD PUSH2 0x1324 PUSH0 DUP7 ADD DUP3 PUSH2 0x1267 JUMP JUMPDEST POP PUSH1 0x20 DUP4 ADD MLOAD DUP5 DUP3 SUB PUSH1 0x20 DUP7 ADD MSTORE PUSH2 0x133C DUP3 DUP3 PUSH2 0x12C8 JUMP JUMPDEST SWAP2 POP POP PUSH1 0x40 DUP4 ADD MLOAD PUSH2 0x1351 PUSH1 0x40 DUP7 ADD DUP3 PUSH2 0x1300 JUMP JUMPDEST POP PUSH1 0x60 DUP4 ADD MLOAD PUSH2 0x1364 PUSH1 0x60 DUP7 ADD DUP3 PUSH2 0x1300 JUMP JUMPDEST POP DUP1 SWAP2 POP POP SWAP3 SWAP2 POP POP JUMP JUMPDEST PUSH0 PUSH2 0x137A DUP4 DUP4 PUSH2 0x130F JUMP JUMPDEST SWAP1 POP SWAP3 SWAP2 POP POP JUMP JUMPDEST PUSH0 PUSH1 0x20 DUP3 ADD SWAP1 POP SWAP2 SWAP1 POP JUMP JUMPDEST PUSH0 PUSH2 0x1398 DUP3 PUSH2 0x123E JUMP JUMPDEST PUSH2 0x13A2 DUP2 DUP6 PUSH2 0x1248 JUMP JUMPDEST SWAP4 POP DUP4 PUSH1 0x20 DUP3 MUL DUP6 ADD PUSH2 0x13B4 DUP6 PUSH2 0x1258 JUMP JUMPDEST DUP1 PUSH0 JUMPDEST DUP6 DUP2 LT ISZERO PUSH2 0x13EF JUMPI DUP5 DUP5 SUB DUP10 MSTORE DUP2 MLOAD PUSH2 0x13D0 DUP6 DUP3 PUSH2 0x136F JUMP JUMPDEST SWAP5 POP PUSH2 0x13DB DUP4 PUSH2 0x1382 JUMP JUMPDEST SWAP3 POP PUSH1 0x20 DUP11 ADD SWAP10 POP POP PUSH1 0x1 DUP2 ADD SWAP1 POP PUSH2 0x13B7 JUMP JUMPDEST POP DUP3 SWAP8 POP DUP8 SWAP6 POP POP POP POP POP POP SWAP3 SWAP2 POP POP JUMP JUMPDEST PUSH0 PUSH1 0x20 DUP3 ADD SWAP1 POP DUP2 DUP2 SUB PUSH0 DUP4 ADD MSTORE PUSH2 0x1419 DUP2 DUP5 PUSH2 0x138E JUMP JUMPDEST SWAP1 POP SWAP3 SWAP2 POP POP JUMP JUMPDEST PUSH2 0x142A DUP2 PUSH2 0x103A JUMP JUMPDEST DUP3 MSTORE POP POP JUMP JUMPDEST PUSH0 PUSH1 0x20 DUP3 ADD SWAP1 POP PUSH2 0x1443 PUSH0 DUP4 ADD DUP5 PUSH2 0x1421 JUMP JUMPDEST SWAP3 SWAP2 POP POP JUMP JUMPDEST PUSH0 DUP3 DUP3 MSTORE PUSH1 0x20 DUP3 ADD SWAP1 POP SWAP3 SWAP2 POP POP JUMP JUMPDEST PUSH32 0x52657175697265732065786163746C7920302E31204554480000000000000000 PUSH0 DUP3 ADD MSTORE POP JUMP JUMPDEST PUSH0 PUSH2 0x148D PUSH1 0x18 DUP4 PUSH2 0x1449 JUMP JUMPDEST SWAP2 POP PUSH2 0x1498 DUP3 PUSH2 0x1459 JUMP JUMPDEST PUSH1 0x20 DUP3 ADD SWAP1 POP SWAP2 SWAP1 POP JUMP JUMPDEST PUSH0 PUSH1 0x20 DUP3 ADD SWAP1 POP DUP2 DUP2 SUB PUSH0 DUP4 ADD MSTORE PUSH2 0x14BA DUP2 PUSH2 0x1481 JUMP JUMPDEST SWAP1 POP SWAP2 SWAP1 POP JUMP JUMPDEST DUP3 DUP2 DUP4 CALLDATACOPY PUSH0 DUP4 DUP4 ADD MSTORE POP POP POP JUMP JUMPDEST PUSH0 PUSH2 0x14DA DUP4 DUP6 PUSH2 0x1449 JUMP JUMPDEST SWAP4 POP PUSH2 0x14E7 DUP4 DUP6 DUP5 PUSH2 0x14C1 JUMP JUMPDEST PUSH2 0x14F0 DUP4 PUSH2 0x12B8 JUMP JUMPDEST DUP5 ADD SWAP1 POP SWAP4 SWAP3 POP POP POP JUMP JUMPDEST PUSH0 PUSH1 0x60 DUP3 ADD SWAP1 POP DUP2 DUP2 SUB PUSH0 DUP4 ADD MSTORE PUSH2 0x1514 DUP2 DUP8 DUP10 PUSH2 0x14CF JUMP JUMPDEST SWAP1 POP DUP2 DUP2 SUB PUSH1 0x20 DUP4 ADD MSTORE PUSH2 0x1529 DUP2 DUP6 DUP8 PUSH2 0x14CF JUMP JUMPDEST SWAP1 POP PUSH2 0x1538 PUSH1 0x40 DUP4 ADD DUP5 PUSH2 0xFF3 JUMP JUMPDEST SWAP7 SWAP6 POP POP POP POP POP POP JUMP JUMPDEST PUSH32 0x4E487B7100000000000000000000000000000000000000000000000000000000 PUSH0 MSTORE PUSH1 0x11 PUSH1 0x4 MSTORE PUSH1 0x24 PUSH0 REVERT JUMPDEST PUSH0 PUSH2 0x1579 DUP3 PUSH2 0xFEA JUMP JUMPDEST SWAP2 POP PUSH2 0x1584 DUP4 PUSH2 0xFEA JUMP JUMPDEST SWAP3 POP DUP3 DUP3 ADD SWAP1 POP DUP1 DUP3 GT ISZERO PUSH2 0x159C JUMPI PUSH2 0x159B PUSH2 0x1542 JUMP JUMPDEST JUMPDEST SWAP3 SWAP2 POP POP JUMP JUMPDEST PUSH32 0x4461696C7920636865636B2D696E20636F6F6C646F776E206163746976650000 PUSH0 DUP3 ADD MSTORE POP JUMP JUMPDEST PUSH0 PUSH2 0x15D6 PUSH1 0x1E DUP4 PUSH2 0x1449 JUMP JUMPDEST SWAP2 POP PUSH2 0x15E1 DUP3 PUSH2 0x15A2 JUMP JUMPDEST PUSH1 0x20 DUP3 ADD SWAP1 POP SWAP2 SWAP1 POP JUMP JUMPDEST PUSH0 PUSH1 0x20 DUP3 ADD SWAP1 POP DUP2 DUP2 SUB PUSH0 DUP4 ADD MSTORE PUSH2 0x1603 DUP2 PUSH2 0x15CA JUMP JUMPDEST SWAP1 POP SWAP2 SWAP1 POP JUMP JUMPDEST PUSH0 DUP2 SWAP1 POP SWAP2 SWAP1 POP JUMP JUMPDEST PUSH0 DUP2 SWAP1 POP SWAP2 SWAP1 POP JUMP JUMPDEST PUSH0 PUSH2 0x1636 PUSH2 0x1631 PUSH2 0x162C DUP5 PUSH2 0x160A JUMP JUMPDEST PUSH2 0x1613 JUMP JUMPDEST PUSH2 0xFEA JUMP JUMPDEST SWAP1 POP SWAP2 SWAP1 POP JUMP JUMPDEST PUSH2 0x1646 DUP2 PUSH2 0x161C JUMP JUMPDEST DUP3 MSTORE POP POP JUMP JUMPDEST PUSH0 PUSH1 0x80 DUP3 ADD SWAP1 POP PUSH2 0x165F PUSH0 DUP4 ADD DUP10 PUSH2 0x163D JUMP JUMPDEST DUP2 DUP2 SUB PUSH1 0x20 DUP4 ADD MSTORE PUSH2 0x1672 DUP2 DUP8 DUP10 PUSH2 0x14CF JUMP JUMPDEST SWAP1 POP DUP2 DUP2 SUB PUSH1 0x40 DUP4 ADD MSTORE PUSH2 0x1687 DUP2 DUP6 DUP8 PUSH2 0x14CF JUMP JUMPDEST SWAP1 POP PUSH2 0x1696 PUSH1 0x60 DUP4 ADD DUP5 PUSH2 0xFF3 JUMP JUMPDEST SWAP8 SWAP7 POP POP POP POP POP POP POP JUMP JUMPDEST PUSH32 0x4F6E6C79206F776E657200000000000000000000000000000000000000000000 PUSH0 DUP3 ADD MSTORE POP JUMP JUMPDEST PUSH0 PUSH2 0x16D5 PUSH1 0xA DUP4 PUSH2 0x1449 JUMP JUMPDEST SWAP2 POP PUSH2 0x16E0 DUP3 PUSH2 0x16A1 JUMP JUMPDEST PUSH1 0x20 DUP3 ADD SWAP1 POP SWAP2 SWAP1 POP JUMP JUMPDEST PUSH0 PUSH1 0x20 DUP3 ADD SWAP1 POP DUP2 DUP2 SUB PUSH0 DUP4 ADD MSTORE PUSH2 0x1702 DUP2 PUSH2 0x16C9 JUMP JUMPDEST SWAP1 POP SWAP2 SWAP1 POP JUMP JUMPDEST PUSH32 0x4E487B7100000000000000000000000000000000000000000000000000000000 PUSH0 MSTORE PUSH1 0x41 PUSH1 0x4 MSTORE PUSH1 0x24 PUSH0 REVERT JUMPDEST PUSH32 0x4E487B7100000000000000000000000000000000000000000000000000000000 PUSH0 MSTORE PUSH1 0x22 PUSH1 0x4 MSTORE PUSH1 0x24 PUSH0 REVERT JUMPDEST PUSH0 PUSH1 0x2 DUP3 DIV SWAP1 POP PUSH1 0x1 DUP3 AND DUP1 PUSH2 0x177A JUMPI PUSH1 0x7F DUP3 AND SWAP2 POP JUMPDEST PUSH1 0x20 DUP3 LT DUP2 SUB PUSH2 0x178D JUMPI PUSH2 0x178C PUSH2 0x1736 JUMP JUMPDEST JUMPDEST POP SWAP2 SWAP1 POP JUMP JUMPDEST PUSH0 DUP2 SWAP1 POP DUP2 PUSH0 MSTORE PUSH1 0x20 PUSH0 KECCAK256 SWAP1 POP SWAP2 SWAP1 POP JUMP JUMPDEST PUSH0 PUSH1 0x20 PUSH1 0x1F DUP4 ADD DIV SWAP1 POP SWAP2 SWAP1 POP JUMP JUMPDEST PUSH0 DUP3 DUP3 SHL SWAP1 POP SWAP3 SWAP2 POP POP JUMP JUMPDEST PUSH0 PUSH1 0x8 DUP4 MUL PUSH2 0x17EF PUSH32 0xFFFFFFFFFFFFFFFFFFFFFFFFFFFFFFFFFFFFFFFFFFFFFFFFFFFFFFFFFFFFFFFF DUP3 PUSH2 0x17B4 JUMP JUMPDEST PUSH2 0x17F9 DUP7 DUP4 PUSH2 0x17B4 JUMP JUMPDEST SWAP6 POP DUP1 NOT DUP5 AND SWAP4 POP DUP1 DUP7 AND DUP5 OR SWAP3 POP POP POP SWAP4 SWAP3 POP POP POP JUMP JUMPDEST PUSH0 PUSH2 0x182B PUSH2 0x1826 PUSH2 0x1821 DUP5 PUSH2 0xFEA JUMP JUMPDEST PUSH2 0x1613 JUMP JUMPDEST PUSH2 0xFEA JUMP JUMPDEST SWAP1 POP SWAP2 SWAP1 POP JUMP JUMPDEST PUSH0 DUP2 SWAP1 POP SWAP2 SWAP1 POP JUMP JUMPDEST PUSH2 0x1844 DUP4 PUSH2 0x1811 JUMP JUMPDEST PUSH2 0x1858 PUSH2 0x1850 DUP3 PUSH2 0x1832 JUMP JUMPDEST DUP5 DUP5 SLOAD PUSH2 0x17C0 JUMP JUMPDEST DUP3 SSTORE POP POP POP POP JUMP JUMPDEST PUSH0 SWAP1 JUMP JUMPDEST PUSH2 0x186C PUSH2 0x1860 JUMP JUMPDEST PUSH2 0x1877 DUP2 DUP5 DUP5 PUSH2 0x183B JUMP JUMPDEST POP POP POP JUMP JUMPDEST JUMPDEST DUP2 DUP2 LT ISZERO PUSH2 0x189A JUMPI PUSH2 0x188F PUSH0 DUP3 PUSH2 0x1864 JUMP JUMPDEST PUSH1 0x1 DUP2 ADD SWAP1 POP PUSH2 0x187D JUMP JUMPDEST POP POP JUMP JUMPDEST PUSH1 0x1F DUP3 GT ISZERO PUSH2 0x18DF JUMPI PUSH2 0x18B0 DUP2 PUSH2 0x1793 JUMP JUMPDEST PUSH2 0x18B9 DUP5 PUSH2 0x17A5 JUMP JUMPDEST DUP2 ADD PUSH1 0x20 DUP6 LT ISZERO PUSH2 0x18C8 JUMPI DUP2 SWAP1 POP JUMPDEST PUSH2 0x18DC PUSH2 0x18D4 DUP6 PUSH2 0x17A5 JUMP JUMPDEST DUP4 ADD DUP3 PUSH2 0x187C JUMP JUMPDEST POP POP JUMPDEST POP POP POP JUMP JUMPDEST PUSH0 DUP3 DUP3 SHR SWAP1 POP SWAP3 SWAP2 POP POP JUMP JUMPDEST PUSH0 PUSH2 0x18FF PUSH0 NOT DUP5 PUSH1 0x8 MUL PUSH2 0x18E4 JUMP JUMPDEST NOT DUP1 DUP4 AND SWAP2 POP POP SWAP3 SWAP2 POP POP JUMP JUMPDEST PUSH0 PUSH2 0x1917 DUP4 DUP4 PUSH2 0x18F0 JUMP JUMPDEST SWAP2 POP DUP3 PUSH1 0x2 MUL DUP3 OR SWAP1 POP SWAP3 SWAP2 POP POP JUMP JUMPDEST PUSH2 0x1930 DUP3 PUSH2 0x1276 JUMP JUMPDEST PUSH8 0xFFFFFFFFFFFFFFFF DUP2 GT ISZERO PUSH2 0x1949 JUMPI PUSH2 0x1948 PUSH2 0x1709 JUMP JUMPDEST JUMPDEST PUSH2 0x1953 DUP3 SLOAD PUSH2 0x1763 JUMP JUMPDEST PUSH2 0x195E DUP3 DUP3 DUP6 PUSH2 0x189E JUMP JUMPDEST PUSH0 PUSH1 0x20 SWAP1 POP PUSH1 0x1F DUP4 GT PUSH1 0x1 DUP2 EQ PUSH2 0x198F JUMPI PUSH0 DUP5 ISZERO PUSH2 0x197D JUMPI DUP3 DUP8 ADD MLOAD SWAP1 POP JUMPDEST PUSH2 0x1987 DUP6 DUP3 PUSH2 0x190C JUMP JUMPDEST DUP7 SSTORE POP PUSH2 0x19EE JUMP JUMPDEST PUSH1 0x1F NOT DUP5 AND PUSH2 0x199D DUP7 PUSH2 0x1793 JUMP JUMPDEST PUSH0 JUMPDEST DUP3 DUP2 LT ISZERO PUSH2 0x19C4 JUMPI DUP5 DUP10 ADD MLOAD DUP3 SSTORE PUSH1 0x1 DUP3 ADD SWAP2 POP PUSH1 0x20 DUP6 ADD SWAP5 POP PUSH1 0x20 DUP2 ADD SWAP1 POP PUSH2 0x199F JUMP JUMPDEST DUP7 DUP4 LT ISZERO PUSH2 0x19E1 JUMPI DUP5 DUP10 ADD MLOAD PUSH2 0x19DD PUSH1 0x1F DUP10 AND DUP3 PUSH2 0x18F0 JUMP JUMPDEST DUP4 SSTORE POP JUMPDEST PUSH1 0x1 PUSH1 0x2 DUP9 MUL ADD DUP9 SSTORE POP POP POP JUMPDEST POP POP POP POP POP POP JUMP JUMPDEST PUSH0 PUSH1 0x80 DUP3 ADD SWAP1 POP DUP2 DUP2 SUB PUSH0 DUP4 ADD MSTORE PUSH2 0x1A0F DUP2 DUP10 DUP12 PUSH2 0x14CF JUMP JUMPDEST SWAP1 POP PUSH2 0x1A1E PUSH1 0x20 DUP4 ADD DUP9 PUSH2 0xFF3 JUMP JUMPDEST DUP2 DUP2 SUB PUSH1 0x40 DUP4 ADD MSTORE PUSH2 0x1A31 DUP2 DUP7 DUP9 PUSH2 0x14CF JUMP JUMPDEST SWAP1 POP DUP2 DUP2 SUB PUSH1 0x60 DUP4 ADD MSTORE PUSH2 0x1A46 DUP2 DUP5 DUP7 PUSH2 0x14CF JUMP JUMPDEST SWAP1 POP SWAP9 SWAP8 POP POP POP POP POP POP POP POP JUMP JUMPDEST PUSH0 PUSH1 0x60 DUP3 ADD SWAP1 POP DUP2 DUP2 SUB PUSH0 DUP4 ADD MSTORE PUSH2 0x1A6D DUP2 DUP9 DUP11 PUSH2 0x14CF JUMP JUMPDEST SWAP1 POP DUP2 DUP2 SUB PUSH1 0x20 DUP4 ADD MSTORE PUSH2 0x1A82 DUP2 DUP7 DUP9 PUSH2 0x14CF JUMP JUMPDEST SWAP1 POP DUP2 DUP2 SUB PUSH1 0x40 DUP4 ADD MSTORE PUSH2 0x1A97 DUP2 DUP5 DUP7 PUSH2 0x14CF JUMP JUMPDEST SWAP1 POP SWAP8 SWAP7 POP POP POP POP POP POP POP JUMP JUMPDEST PUSH32 0x4E487B7100000000000000000000000000000000000000000000000000000000 PUSH0 MSTORE PUSH1 0x32 PUSH1 0x4 MSTORE PUSH1 0x24 PUSH0 REVERT JUMPDEST PUSH0 PUSH2 0x1ADB DUP3 PUSH2 0xFEA JUMP JUMPDEST SWAP2 POP PUSH2 0x1AE6 DUP4 PUSH2 0xFEA JUMP JUMPDEST SWAP3 POP DUP3 DUP3 SUB SWAP1 POP DUP2 DUP2 GT ISZERO PUSH2 0x1AFE JUMPI PUSH2 0x1AFD PUSH2 0x1542 JUMP JUMPDEST JUMPDEST SWAP3 SWAP2 POP POP JUMP JUMPDEST PUSH0 DUP2 SLOAD SWAP1 POP PUSH2 0x1B12 DUP2 PUSH2 0x1763 JUMP JUMPDEST SWAP1 POP SWAP2 SWAP1 POP JUMP JUMPDEST DUP2 DUP2 SUB PUSH2 0x1B27 JUMPI POP POP PUSH2 0x1BFC JUMP JUMPDEST PUSH2 0x1B30 DUP3 PUSH2 0x1B04 JUMP JUMPDEST PUSH8 0xFFFFFFFFFFFFFFFF DUP2 GT ISZERO PUSH2 0x1B49 JUMPI PUSH2 0x1B48 PUSH2 0x1709 JUMP JUMPDEST JUMPDEST PUSH2 0x1B53 DUP3 SLOAD PUSH2 0x1763 JUMP JUMPDEST PUSH2 0x1B5E DUP3 DUP3 DUP6 PUSH2 0x189E JUMP JUMPDEST PUSH0 PUSH1 0x1F DUP4 GT PUSH1 0x1 DUP2 EQ PUSH2 0x1B8B JUMPI PUSH0 DUP5 ISZERO PUSH2 0x1B79 JUMPI DUP3 DUP8 ADD SLOAD SWAP1 POP JUMPDEST PUSH2 0x1B83 DUP6 DUP3 PUSH2 0x190C JUMP JUMPDEST DUP7 SSTORE POP PUSH2 0x1BF5 JUMP JUMPDEST PUSH1 0x1F NOT DUP5 AND PUSH2 0x1B99 DUP8 PUSH2 0x1793 JUMP JUMPDEST SWAP7 POP PUSH2 0x1BA4 DUP7 PUSH2 0x1793 JUMP JUMPDEST PUSH0 JUMPDEST DUP3 DUP2 LT ISZERO PUSH2 0x1BCB JUMPI DUP5 DUP10 ADD SLOAD DUP3 SSTORE PUSH1 0x1 DUP3 ADD SWAP2 POP PUSH1 0x1 DUP6 ADD SWAP5 POP PUSH1 0x20 DUP2 ADD SWAP1 POP PUSH2 0x1BA6 JUMP JUMPDEST DUP7 DUP4 LT ISZERO PUSH2 0x1BE8 JUMPI DUP5 DUP10 ADD SLOAD PUSH2 0x1BE4 PUSH1 0x1F DUP10 AND DUP3 PUSH2 0x18F0 JUMP JUMPDEST DUP4 SSTORE POP JUMPDEST PUSH1 0x1 PUSH1 0x2 DUP9 MUL ADD DUP9 SSTORE POP POP POP JUMPDEST POP POP POP POP POP POP JUMPDEST JUMP JUMPDEST PUSH0 PUSH2 0x1C08 DUP3 PUSH2 0xFEA JUMP JUMPDEST SWAP2 POP PUSH0 DUP3 SUB PUSH2 0x1C1A JUMPI PUSH2 0x1C19 PUSH2 0x1542 JUMP JUMPDEST JUMPDEST PUSH1 0x1 DUP3 SUB SWAP1 POP SWAP2 SWAP1 POP JUMP INVALID LOG2 PUSH5 0x6970667358 0x22 SLT KECCAK256 0xA6 JUMPI MSIZE 0x22 CALLVALUE MULMOD 0xAF MSIZE PUSH24 0xF8E1780AE6A9A97DEC4ADA2D81BDF44B1064AE0D64E5C664 PUSH20 0x6F6C634300081800330000000000000000000000 "},"methodIdentifiers":{"GAME_FEE()":"1001333a","bestScore(address)":"dc0c695f","checkInBonus(address)":"3f224c64","dailyCheckIn(string,string)":"1cfcc5d4","getCheckInBonus(address)":"50063037","getLeaderboard()":"6d763a6e","lastCheckIn(address)":"ef6fdb1c","owner()":"8da5cb5b","startGame(string,string)":"044c96e4","submitScore(uint256,string,string,string)":"43a8b7a5","switchCamera(string,string,string)":"478a41fd","withdraw()":"3ccfd60b"}}}}}